:100000000C943E000C9448000C9448000C9448005A
:100010000C9448000C9448000C9448000C94480040
:100020000C9448000C9448000C9448000C94480030
:100030000C9448000C9448000C9448000C94480020
:100040000C9448000C9448000C9448000C94480010
:100050000C9448000C9448000C9448000C94480000
:100060000C9448000C9448000C9448000C944800F0
:100070000C9448000C9448000C94480011241FBEB6
:10008000CFEFD8E0DEBFCDBF0E946A000C947A00AB
:100090000C94000082E082B9089512B808954A9B3A
:1000A00009C02FEF89EF90E0215080409040E1F7A8
:1000B00000C0000089B182FB882780F9089530E0F4
:1000C00020E02817390729F000C000002F5F3F4FBC
:1000D000F8CF08958FEF81B984B987B91AB8D2E003
:1000E000C1E0D2B9C5B90E944F008111C5B989B12B
:0800F00012B8F7CFF894FFCF1E
:00000001FF
