:100000000C943E000C9448000C9448000C9448005A
:100010000C9448000C9448000C9448000C94480040
:100020000C9448000C9448000C9448000C94480030
:100030000C9448000C9448000C9448000C94480020
:100040000C9448000C9448000C9448000C94480010
:100050000C9448000C9448000C9448000C94480000
:100060000C9448000C9448000C9448000C944800F0
:100070000C9448000C9448000C94480011241FBEB6
:10008000CFEFD8E0DEBFCDBF0E9495000C94B90041
:100090000C94000081E08BB9089582E08BB908953B
:1000A0008CE322E091E0E7ECF0E03197F1F700C05B
:1000B00000002BB9FAE1FA95F1F700C09BB9815025
:1000C00091F7089511B88FEF84B987B98AB9089567
:1000D00010927C0086E880937A00089510927A004E
:1000E000089580917C00807E80937C0080917C00CC
:1000F0006770682B60937C0080917A0080648093A5
:100100007A0080917A0084FFFCCF80917A00806130
:1001100080937A002091780090917900892F90E067
:10012000982F8827820F911D0895CF93DF931F92F8
:10013000CDB7DEB70E946200CE0101960E94680032
:1001400002E011E060E0CE0101960E9471009695F8
:10015000879596958795282F8F3108F40BB98F5185
:100160008E3118F40E945000EDCF2D3358F31BB997
:06017000E9CFF894FFCF77
:00000001FF
