:100000000C943E000C9450000C9450000C94500042
:100010000C9450000C9450000C9450000C94500020
:100020000C9450000C9450000C9450000C94500010
:100030000C9450000C9450000C9450000C94500000
:100040000C9450000C9450000C9450000C945000F0
:100050000C9450000C9450000C9450000C945000E0
:100060000C9450000C9450000C9450000C945000D0
:100070000C9450000C9450000C94500011241FBE9E
:10008000CFEFD8E0DEBFCDBF21E0A0E0B1E001C0FE
:100090001D92A430B207E1F70E9472000C949D00FB
:1000A0000C94000082E082B9089512B808954A9B2A
:1000B00009C02FEF89EF90E0215080409040E1F798
:1000C00000C0000089B182FB882780F9089530E0E4
:1000D00020E02817390729F000C000002F5F3F4FAC
:1000E000F8CF08958FEF81B984B987B91AB8C1E004
:1000F00000ED17E082E0F82E0E945700882319F0E7
:10010000C11105C0C0E04A9BC1E012B8F5CFC0EDF7
:10011000D7E06801CC1ADD0AF2B8CE010E94670070
:1001200012B890E080E08C159D0521F000C0000021
:0E0130000196F9CF219769F7E5CFF894FFCF3C
:00000001FF
