:100000000C943E000C947D000C9450000C94500015
:100010000C9450000C9450000C9450000C94500020
:100020000C9450000C9450000C9450000C94500010
:100030000C9450000C946E000C9450000C945000E2
:100040000C9450000C9450000C9450000C945000F0
:100050000C9450000C9450000C9450000C945000E0
:100060000C9450000C9450000C9450000C945000D0
:100070000C9450000C9450000C94500011241FBE9E
:10008000CFEFD8E0DEBFCDBF21E0A0E0B1E001C0FE
:100090001D92A330B207E1F70E94C2000C94F00059
:1000A0000C94000082E082B9089581E082B908953D
:1000B00021E092E022B9EFECF7E03197F1F700C0D0
:1000C000000092B9EFECF7E03197F1F700C00000C3
:1000D00089B18111EFCF089512B808951F920F9240
:1000E0000FB60F9211248F9381E0809301018F91BD
:1000F0000F900FBE0F901F9018951F920F920FB682
:100100000F9211248F939F9381E0809300018FE5DC
:100110009AEE0197F1F700C000009F918F910F9028
:100120000FBE0F901F90189510920101E4E8F0E0C7
:1001300020813181318320839093890080938800CE
:10014000E0E8F0E0808181608083E1E8F0E0808198
:1001500085608083E2E8F0E080818083EFE6F0E074
:100160008081826080830895F8948FEF81B984B98B
:1001700087B91AB8E89AE9E6F0E080818160808367
:10018000789408950E94B4002FEF8DE399E42150F4
:1001900080409040E1F700C0000082E082B92FEF7C
:1001A00089E698E1215080409040E1F700C00000CE
:1001B00012B884E89EE10E949400809101018111AF
:1001C00004C0809100018823C1F3F894809101015B
:1001D000882321F082E082B912B8FFCF81E0FBCF03
:0401E000F894FFCFC1
:00000001FF
